:020000040800F2
:10000000880B0020F51200089503000897030008EC
:100010009B0300089F030008A303000800000000E2
:10002000000000000000000000000000A70300081E
:10003000A903000800000000AB030008AD0300089E
:100040000F1300080F1300080F1300080F13000808
:100050000F1300080F1300080F1300080F130008F8
:100060000F1300080F1300080F1300080F130008E8
:100070000F1300080F1300080F1300080F130008D8
:100080000F1300080F1300080F1300080F130008C8
:100090000F1300080F1300080F1300080F130008B8
:1000A0000F1300080F1300080F1300080F130008A8
:1000B0000F1300080F1300080F1300080F13000898
:1000C0000F1300080F1300080F1300080F13000888
:1000D0000F130008691200080F1300080F1300081F
:1000E0000F1300080F1300080F13000800F002F8A8
:1000F00000F03FF80AA090E8000C82448344AAF183
:100100000107DA4501D100F034F8AFF2090EBAE880
:100110000F0013F0010F18BFFB1A43F0010318473B
:1001200084320000A4320000103A24BF78C878C19D
:10013000FAD8520724BF30C830C144BF04680C60ED
:10014000704700000023002400250026103A28BF35
:1001500078C1FBD8520728BF30C148BF0B60704739
:10016000692901F01B87002070471FB51FBD10B51E
:1001700010BD01F0EDFF1146FFF7F7FF00F038F872
:1001800002F00BF803B4FFF7F2FF03BC01F00EF826
:100190006848006840F00100664908600846406809
:1001A00048600846406840F4E010486008464068EF
:1001B00048600846006840F08070086000BF5D48F5
:1001C000006800F000700028F9D05A48406820F01C
:1001D0000300584948600846406840F00200486003
:1001E00000BF5448406800F00C000828F9D170475F
:1001F000ADF54E7DFFF7CCFF00F0D2FF00F06EFFB3
:100200004FF4E13000F0E1FF00F063FC4FF47A704E
:1002100000F09DFF05A9002000F0AFFC00F063FC9A
:10022000FF2000F099FB4449087082E00020434918
:1002300008602DE000BF424800680128FBD041491A
:10024000072000F006FC3F4800788007800B3D49FE
:10025000497840EA01203B498978084306A9374A92
:10026000126841F822003748C0788007800B354972
:10027000097940EA01203349497908436AA92F4A9C
:10028000126841F822002D480068401C2B49086084
:100290002A4800686428CDDB2B482C492C4A2D4B7A
:1002A000CDE90132CDE903102B482C4B06AA64217D
:1002B00000906AA800F0B3FD2548007801281ED1FF
:1002C0002548007801281AD12248016824A001F0AD
:1002D00025FE1F4890F9001023A001F01FFE1F48C3
:1002E000006802F061FE84B2214623A001F016FEF0
:1002F000194890F9001023A001F010FE19E01548EC
:10030000016817A001F00AFE114890F9001016A02C
:1003100001F004FE1148006802F046FE84B2214656
:1003200015A001F0FBFD0C4890F9001015A001F09C
:10033000F5FD7BE700100240000000201C000020BB
:1003400024812142200000200C0000200800002011
:1003500018000020140000201000002004000020DD
:1003600048523D25692C2000485276616C69643DF5
:1003700025692C200000000053704F323D25692C68
:100380002000000053504F3256616C69643D25696E
:100390000D0A0000704700BFFEE700BFFEE700BF88
:1003A000FEE700BFFEE770477047704770470000E8
:1003B0000CB50020019000906C48006840F480303B
:1003C0006A49086000BF6948006800F40030009086
:1003D0000198401C0190009818B90198B0F5A06FE1
:1003E000F1D16248006800F4003010B101200090A3
:1003F00001E0002000900098012843D15C4800688B
:1004000040F010005A4908600846006820F00300D8
:1004100008600846006840F00200086053484068E1
:10042000524948600846406848600846406840F4C1
:10043000806048600846406820F47C1048600846A8
:10044000406840F4E81048600846006840F080705A
:10045000086000BF4548006800F000700028F9D02F
:100460004248406820F00300404948600846406820
:1004700040F00200486000BF3C48406800F00C00BB
:100480000828F9D10CBD10B5FFF792FF10BD10B5CB
:100490003648006840F0010034490860084640686A
:1004A00034490840314948600846006832490840EC
:1004B0002E4908600846006820F48020086008463D
:1004C000406820F4FE0048604FF41F008860FFF78A
:1004D000DAFF4FF000602949086010BD10B5002117
:1004E00000200022214B5B6803F00C0121B104299C
:1004F00006D0082928D107E0214B224C236027E0B1
:100500001F4B204C236023E0184B5B6803F47010F2
:10051000164B5B6803F48032022303EB904022B950
:10052000194B4343174C23600DE0104B5B6803F4F9
:10053000003323B1144B4343124C236003E0104BB0
:100540004343104C236003E00D4B0E4C236000BF6F
:1005500000BF064B5B68C3F303130C4CE15C094B13
:100560001B68CB40074C236010BD00000010024008
:10057000002002400000FFF8FFFFF6FE08ED00E05B
:1005800000127A002800002000093D002C00002005
:1005900008B50121082001F0E9F94FF4C070ADF869
:1005A000000010208DF8030003208DF8020069463A
:1005B000D54800F01FFF0120D4490860D449C1F894
:1005C000A00108BD10B5D048001D006820F00F0044
:1005D000CD49091D08600846006840F00700086022
:1005E0000120CA49091D0860C949C1F89C010420BD
:1005F00000F089FD0020C549091D0860042000F0B5
:1006000082FD0020C249C1F89C0110BD10B5BE4852
:10061000001D006820F00F00BB49091D0860084656
:10062000006840F0070008600020B8490860B84939
:10063000C1F8A001042000F066FD0120B349086064
:10064000B349C1F8A001042000F05DFD10BD10B554
:100650000024AD48001D006820F00F00AA49091DC4
:1006600008600846006840F0040008600120A749BF
:10067000091D086000F047FD0120A549C1F89C0153
:1006800000F041FD07E0601CC4B2FA2C03DDFFF767
:10069000BDFF012010BD9D487C3800680028F2D1C4
:1006A0009A49086000BFF5E710B500209749086037
:1006B0009548001D006820F00F009349091D08604F
:1006C0000846006840F00700086000209049C1F823
:1006D000A001022000F017FD01208C4908600220D3
:1006E00000F011FD00208A49C1F89C0110BD10B531
:1006F0000020864908608448001D006820F00F0033
:100700008149091D08600846006840F0070008603C
:1007100001207F49C1F8A001022000F0F4FC012073
:100720007A490860022000F0EEFC00207849C1F808
:100730009C0110BD70B504467348001D006820F090
:100740000F007149091D08600846006840F0070065
:10075000086000206D490860002517E0E0096B493A
:10076000091D08606006040E022000F0CCFC012088
:100770006749C1F89C01022000F0C5FC00206349D4
:100780000860022000F0BFFC681CC5B2082DE5DB44
:1007900070BD70B5054600245B48001D006820F060
:1007A0000F005949091D08600846006840F0040020
:1007B0000860002616E0002054490860022000F07E
:1007C000A2FC01205249C1F89C016006040E4F486A
:1007D0007C38006808B1601CC4B2012000F093FCB2
:1007E000701CC6B2082EE6DB15B9FFF780FF01E0EA
:1007F000FFF75AFF204670BD2DE9F04107460D4630
:100800001646FFF7DFFE3846FFF794FFFFF71FFF9E
:10081000002406E0285DFFF78DFFFFF718FF601C3E
:10082000C4B2B442F6DBFFF7F1FE0A2000F08FFC01
:10083000BDE8F0812DE9F0410746884614461D4683
:10084000FFF7C0FE3846FFF775FFFFF700FF404691
:10085000FFF770FFFFF7FBFE47F00100FFF76AFFAD
:10086000FFF7F5FE002605E00120FFF792FFA055F7
:10087000701CC6B2681EB042F6DC0020FFF789FF8C
:10088000691E6054FFF7C2FE0A2000F060FCBDE85C
:10089000F08170B504460D461646FFF793FE2046DC
:1008A000FFF748FFFFF7D3FE2846FFF743FFFFF7A8
:1008B000CEFEFFF787FE44F00100FFF73BFFFFF796
:1008C000C6FE0020FFF765FF3070FFF79FFE70BD8A
:1008D00070B506460C461546FFF774FE3046FFF726
:1008E00029FFFFF7B4FE2046FFF724FFFFF7AFFE16
:1008F0002846FFF71FFFFFF7AAFEFFF787FE0A2033
:1009000000F025FC70BD0000000C01409C812142DC
:100910000080214270B505460C46FFF753FEAE201D
:10092000FFF708FFFFF793FE00B111E02846FFF73D
:1009300001FFFFF78CFE00B10AE02046FFF7FAFE48
:10094000FFF785FE00B103E0FFF760FE012070BDF8
:10095000FFF75CFE0020FAE770B50446FFF732FEB1
:10096000AE20FFF7E7FEFFF772FE00B119E0204668
:10097000FFF7E0FEFFF76BFE00B112E0FFF722FE8B
:10098000AF20FFF7D7FEFFF762FE00B109E00020BD
:10099000FFF7FFFE0546FFF7AAFEFFF737FE2846E2
:1009A00070BDFFF733FE0020FAE72DE9F0478246DD
:1009B0000C46174600253E46FFF704FEAE20FFF723
:1009C000B9FEFFF744FE00B13FE05046FFF7B2FE2C
:1009D000FFF73DFE00B138E0FFF7F4FDAF20FFF771
:1009E000A9FEFFF734FE00B12FE029E00020FFF759
:1009F000D0FE8046FFF758FE0020FFF7CAFE814672
:100A0000FFF752FE49EA082024F825000020FFF7EE
:100A1000C0FE8046FFF748FE0020FFF7BAFE814681
:100A2000012E02D1FFF763FE01E0FFF73DFE49EA28
:100A3000082004EB85014880701EC6B2681CC5B250
:100A4000002ED3D1FFF7E2FD00BFFFF7DFFDBDE8C9
:100A5000F08770B505460C460020FFF77DFF0120AA
:100A6000FFF77AFFFFF7AEFDAE20FFF763FEFFF75B
:100A7000EEFD00B12AE02846FFF75CFEFFF7E7FD38
:100A800000B123E0FFF79EFDAF20FFF753FEFFF715
:100A9000DEFD00B11AE00120FFF77BFE207001208F
:100AA000FFF777FE60700120FFF773FEA070012052
:100AB000FFF76FFEE0700120FFF76BFE2071002052
:100AC000FFF767FE6071FFF7A1FD00BFFFF79EFD16
:100AD00070BD10B540210920FFF71CFF40210920FF
:100AE000FFF718FF10BD08B50121082000F03EFFF8
:100AF0004FF40070ADF8000048208DF803006946FF
:100B0000414800F077FCFFF743FDFFF7E2FFC0210B
:100B10000220FFF7FFFE00210320FFF7FBFE00216C
:100B20000420FFF7F7FE00210520FFF7F3FE002168
:100B30000620FFF7EFFE4F210820FFF7EBFE032111
:100B40000920FFF7E7FE27210A20FFF7E3FE242113
:100B50000C20FFF7DFFE24210D20FFF7DBFE7F21B5
:100B60001020FFF7D7FE08BD70B504460D462A4693
:100B70002146AE20FFF7ACFE70BD70B504460D46B1
:100B80002A462146AE20FFF784FE70BDFEB506461C
:100B90000C4600203060206002A9FFF7EEFF02A99A
:100BA0000120FFF7EAFF06236A460721AE20FFF780
:100BB00041FE9DF800502D043068284430609DF8B7
:100BC00001502D023068284430609DF80250306892
:100BD000284430609DF803502D042068284420608C
:100BE0009DF804502D022068284420609DF805508F
:100BF0002068284420603068C0F31100306020680D
:100C0000C0F311002060FEBD000C01402DE9F05F33
:100C1000804689461546A9EB050007B24FF0000A49
:100C2000002F02DC5046BDE8F09F002644460CE051
:100C300054F82510206802F037FA8346514602F036
:100C400083F88246701C06B2241DBE42F0DB384693
:100C500002F0CAF983465946504602F0E3F8E2E74B
:100C60002DE9FF4F83B015461F46DDF84CA0DDF897
:100C70004090002001902C682246DDE90301FFF737
:100C8000C5FF06460290B34600BF5E46641E22467C
:100C9000DDE90301FFF7BAFF83463146584602F00B
:100CA000CFFA01D2BC42F0DCBC4204D10120019059
:100CB0002C68029E00E0641C2868A0421BD1B0464C
:100CC00000BF4646641C2246DDE90301FFF79EFF94
:100CD00080463146404602F0B3FA01D24C45F0DB83
:100CE0004C4501D1002400E0641E2868A04202D1D6
:100CF000019800B100243046129902F093F8CAF826
:100D00000000DAF80000119902F09AF900D20024EC
:100D10002C6007B0BDE8F08F2DE9F05F05460E4668
:100D200014464FF000080027A946B24610E0DAF852
:100D30000010D9F8000002F0B7F98346414602F0EE
:100D400003F88046781C07B209F104090AF1040A85
:100D5000A742ECDB204602F047F98346594640465D
:100D600002F060F880464046BDE8F09F2DE9FC5F48
:100D700081460D461446002020608246CB4610E096
:100D8000DBF800603146304602F08EF907462168F4
:100D900001F0DAFF20600AF101000FFA80FA0BF18E
:100DA000040BAA45ECDB284602F01EF9074639463B
:100DB000206802F037F82060206801F099FF0746AC
:100DC00001F0F1F9CDE9000101F014FABDE8FC9F52
:100DD0002DE9F04704460D461646002785F00049E8
:100DE000A04611E04846D8F8001002F05DF98246AE
:100DF000394601F0A9FF07464FF07E51484601F001
:100E0000A3FF814608F104082946484602F018F974
:100E1000E8D93146384602F005F8BDE8F0872DE9FB
:100E2000F04FADF55F7D81460D4692469846DDF860
:100E3000A0B30020DD90DC90002412E059F82400DB
:100E400002F0EAF80B90DD9901F07EFFDD905AF890
:100E5000240002F0E1F80B90DC9901F075FFDC90C2
:100E6000641CAC42EADB284602F0BEF801460B9057
:100E7000DD9801F0D7FFDD90284602F0B5F8014675
:100E80000B90DC9801F0CEFFDC90002470AE0CAF2C
:100E900014E059F8240002F0BFF80B90DD9902F03D
:100EA0000BFA30605AF8240002F0B6F80B90DC9987
:100EB00002F002FA3860641C361D3F1DAC42E8DBCC
:100EC000754A764970A8FFF783FFD690724A734936
:100ED0000CA8FFF77DFFD59000247148D49070AE28
:100EE0000CAF1AE0D499D69802F0DEF80B90316876
:100EF00002F0D7F93060D499D59802F0D5F80B906C
:100F0000396802F0CEF93860641C4FF07E51D498F5
:100F100001F01AFFD490361D3F1DAC42E2DBDAAA85
:100F200029460CA8FFF722FFD990DBAA294670A812
:100F3000FFF71CFFD890DB99DA9802F0B5F8039020
:100F400001F0D6FECDE9040101F02DF92A46CDE9E4
:100F500008010CA970A8FFF7DFFE059001F0C8FE9C
:100F6000CDE90601DDE9082301F02AFACDE90A01FD
:100F700001F040F9EC990860EC990868494902F0E1
:100F80005FF90FD84FF07C522523DB99EB98CDE920
:100F90000032CDE902100C23434A642170A8FFF708
:100FA0005FFE02E00020404908603F48006858B1F9
:100FB0003D48006840F2DC5191FBF0F1E998016096
:100FC0000121EA98017012E0192037490860374979
:100FD000E99801600021EA9801703548C8F80000DE
:100FE00000208BF800000DF55F7DBDE8F08FDC99E7
:100FF000D89802F059F80B90DD99D99802F054F87E
:101000000A900B9901F00EFFD790D79801F070FE6F
:10101000284A294BCDE90A0101F064FC33D2D79864
:1010200001F066FE254A264BCDE90A0101F020FBBE
:1010300029D2D79801F05CFECDE90601D79801F0DE
:1010400057FE204A204BCDE9000101F04DFB1F4A1D
:101050001F4BCDE9020101F0FFF8CDE90401DDE904
:10106000062301F041FB1B4A1B4BCDE9080101F0AF
:10107000F3F8CDE90A0101F0BDF8C8F8000001203D
:101080008BF8000005E00A48C8F8000000208BF843
:10109000000000BFA7E7000080BEA2470000464254
:1010A000000046C2CDCC4C3F3C00002019FCFFFFA5
:1010B00000C079C47B14AE47E17A943F713D0AD7F2
:1010C000A370FD3F48E17A14AE8746C0B4C876BE2F
:1010D0009F5A3E40AE47E17A14B6574010B56FF0C4
:1010E000040000F0FAFE06202B490870084600783C
:1010F00000EB4001C1EBC0104FF6FF7101EAC000E8
:101100002649088010BD0146234A12784A434FF011
:10111000E0235A6100229A611A46126942F00102E4
:101120001A6100BF4FF0E022106900F001021AB10D
:1011300000F48032002AF5D04FF0E022126922F04C
:1011400001024FF0E0231A6100229A6170470146C4
:10115000124A12884A434FF0E0235A6100229A61F2
:101160001A46126942F001021A6100BF4FF0E022F4
:10117000106900F001021AB100F48032002AF5D0A3
:101180004FF0E022126922F001024FF0E0231A61D1
:1011900000229A61704700004000002042000020B9
:1011A00010B54FF4A06000F049FE10BD014600BF2D
:1011B000704700BF4B4A128802F04002002AF9D063
:1011C000C2B2484B1B1D1A80704710B586B004464A
:1011D000012144F2040000F0C9FB424800F02AFC5F
:1011E0004FF40070ADF8140003208DF8160018209D
:1011F0008DF8170005A93C4800F0FCF84FF480601A
:10120000ADF8140004208DF8170005A9364800F049
:10121000F1F825208DF8000003208DF801008DF8ED
:10122000020001208DF80300684600F00CFE0194D6
:101230000020ADF80800ADF80A00ADF80C00ADF8DC
:1012400010000C20ADF80E0001A9264800F035FC76
:10125000012240F22551234800F0C7FC012121481A
:1012600000F0B7FC06B010BD10B540F225511D4886
:1012700000F0A0FD10B31B4800F01CFDC4B21B48D9
:10128000008800F40040C8B91848008800F4804085
:1012900060B10A2C03D000201449088020E01348D4
:1012A000008840F400401149088019E00D2C06D157
:1012B0000E48008840F480400C49088010E00B483C
:1012C0000088C0F30D000A490C5408480088401CEF
:1012D0000649088008460088C72801DD00200880EC
:1012E00010BD000000380140000801404800002007
:1012F000600000200948804709480047FEE7FEE7F4
:10130000FEE7FEE7FEE7FEE7FEE7FEE7FEE7FEE7B5
:1013100004480549054A064B704700008F04000841
:10132000ED00000888010020880B002088030020C1
:101330008803002010B50446CC48844208D101211E
:10134000042000F02DFB0021042000F029FB46E0E2
:10135000C748844208D10121082000F021FB002168
:10136000082000F01DFB3AE0C248844208D1012168
:10137000102000F015FB0021102000F011FB2EE0E2
:10138000BD48844208D10121202000F009FB002142
:10139000202000F005FB22E0B848844208D101215A
:1013A000402000F0FDFA0021402000F0F9FA16E09C
:1013B000B348844208D10121802000F0F1FA0021D5
:1013C000802000F0EDFA0AE0AE48844207D1012106
:1013D000801500F0E5FA0021A01500F0E1FA10BD3B
:1013E00010B50121084600F0DBFA0021012000F0D1
:1013F000D7FA10BD2DE9F041024600250026002055
:1014000000230024002791F803C00CF00F0591F889
:1014100003C00CF0100CBCF1000F03D091F802C017
:101420004CEA050591F800C0BCF1000F31D01468FA
:1014300000202BE04FF0010C0CFA00F3B1F800C0D3
:101440000CEA03069E4220D183004FF00F0C0CFAE9
:1014500003F7BC4305FA03FC4CEA040491F803C00B
:10146000BCF1280F06D14FF0010C0CFA00FCC2F8B9
:1014700014C00AE091F803C0BCF1480F05D14FF049
:10148000010C0CFA00FCC2F810C0401C0828D1D393
:101490001460B1F800C0BCF1FF0F34DD54680020C7
:1014A0002EE000F1080C4FF0010808FA0CF3B1F837
:1014B00000C00CEA03069E4221D183004FF00F0CBE
:1014C0000CFA03F7BC4305FA03FC4CEA040491F858
:1014D00003C0BCF1280F05D100F1080C08FA0CF884
:1014E000C2F8148091F803C0BCF1480F07D100F195
:1014F000080C4FF0010808FA0CF8C2F81080401CE4
:101500000828CED35460BDE8F0814FF6FF7101800A
:10151000022181700421C170704702460020936847
:101520000B400BB1012000E00020704701468868A5
:1015300080B2704702460020D3680B400BB10120F7
:1015400000E0002070470146C86880B27047016122
:101550007047416170470AB1016100E04161704725
:10156000C16070474FF480320A43826181618261B9
:1015700082698269704702460020434B18684FF623
:101580008073184040EA021008433F4B18607047D0
:101590003E49C8617047F0B50A4600230024002187
:1015A000002500F00046B6F1004F02D1364EF16939
:1015B00001E0354E7168C0F3034583B200F4401674
:1015C000B6F5401F08D121F070612F4E766826F0E5
:1015D00070662D4F7E6012E000F48016B6F5801F15
:1015E00006D1032606FA05F4A14341F0706106E036
:1015F000460D360103FA06F6B14341F0706122B19F
:10160000460D360103FA06F6314300F00046B6F106
:10161000004F02D11C4EF16101E01B4E7160F0BD24
:1016200030B500228B071C0F0F2303FA04F2164B70
:1016300008338C1053F824309343134C08348D1026
:1016400044F8253023468C1053F824308C07240F9F
:1016500000FA04F423430C4C08348D1044F8253070
:1016600030BD0A49DC3108607047000000080140C5
:10167000000C01400010014000140140001801401E
:10168000001C0140002001400000014000002042F9
:10169000DF48006840F00100DD4908600846406806
:1016A000DC490840DA49486008460068DA490840E1
:1016B000D74908600846006820F480200860084682
:1016C000406820F4FE0048604FF41F0088607047B7
:1016D000CF49096821F48031CD4A1160114609686B
:1016E00021F480211160B0F5803F03D0B0F5802F48
:1016F0000ED106E0C649096841F48031C44A116040
:1017000007E0C349096841F4A021C14A116000E023
:1017100000BF00BF704710B5014600220023002023
:101720004A11012A02D1BA4C236806E0022A02D1EA
:10173000B74C236A01E0B64C636A01F01F02012432
:1017400094401C400CB1012000E0002010BD38B5D1
:10175000002000900024002500BF3120FFF7DBFFB0
:1017600005460098401C00900098B0F5A06F01D08D
:10177000002DF2D03120FFF7CEFF08B1012400E0A8
:101780000024204638BD01460020A14A106820F000
:10179000F80040EAC10010607047A0490860704737
:1017A000024600209A4B586820F47C1042EA01035C
:1017B0001843974B58607047984908667047014630
:1017C0000020934A506820F003000843506070479F
:1017D0008F48406800F00C007047014600208C4A9A
:1017E000506820F0F0000843506070470146002028
:1017F000874A506820F4E060084350607047014613
:101800000020834A506820F4605040EAC1005060D4
:10181000704729B17E4A527A02437D4B5A7204E0E6
:101820007B4A527A82437A4B5A7270477B49D8314D
:101830000860704701460020754A506820F4404017
:101840000843506070470021714A20321170704A7D
:1018500082F82010012802D004280AD104E00121D6
:101860006B4A2032117005E00521694A203211705F
:1018700000E000BF00BF70476949086070476449D5
:10188000096A0143624A1162704765494439086038
:10189000704730B500210022002400235C4D6D68A4
:1018A00005F00C0121B1042905D0082923D105E058
:1018B0005C4D056022E05B4D05601FE0544D6D6896
:1018C00005F47012524D6D6805F48034022505EB65
:1018D00092421CB9544D554305600BE04C4D6D6868
:1018E00005F400351DB1504D5543056002E04D4DE6
:1018F0005543056002E04B4D056000BF00BF444DFD
:101900006D6805F0F0010909484D6B5C0568DD4024
:1019100045603F4D6D6805F4E061090A434D6B5C1D
:101920004568DD4085603A4D6D6805F46051C90A2F
:101930003E4D6B5C4568DD40C560354D6D6805F416
:101940004041890B3A4D6B5CC568B5FBF3F5056109
:1019500030BD29B12E4A526902432D4B5A6104E031
:101960002B4A526982432A4B5A61704729B1284A4F
:1019700092690243264B9A6104E0254A92698243A8
:10198000234B9A61704729B1214AD2690243204B07
:10199000DA6104E01E4AD26982431D4BDA61704766
:1019A00029B11B4AD2680243194BDA6004E0184A95
:1019B000D2688243164BDA60704729B1144A126923
:1019C0000243134B1A6104E0114A12698243104B1F
:1019D0001A61704712494039086070470F49C8645E
:1019E00070470B49C87170470948406A40F08070E1
:1019F00007494862704701460020054A92680A403C
:101A00000AB1012000E00020704701498872704748
:101A1000001002400000FFF8FFFFF6FE0000424207
:101A20008004424200127A0000093D004A00002072
:101A30005A00002010B50446FB48844209D1012118
:101A40008803FFF7ADFF00214FF48040FFF7A8FFA8
:101A500032E0F648844209D101214804FFF7ADFF86
:101A600000214FF40030FFF7A8FF25E0F048844242
:101A700009D101218804FFF7A0FF00214FF4802045
:101A8000FFF79BFF18E0EB48844209D10121C8040D
:101A9000FFF793FF00214FF40020FFF78EFF0BE0CC
:101AA000E548844208D101210805FFF786FF00219F
:101AB0004FF48010FFF781FF10BD2DE9F04786B08D
:101AC00005460E460024A24600BFA1460027B08965
:101AD00000B100BF2F462C8A4CF6FF700440F088FE
:101AE00004432C82AC894EF6F3100440B08831894F
:101AF0000843718908430443AC81AC8A4FF6FF4028
:101B00000440B0890443AC8201A8FFF7C2FEC64876
:101B1000874202D1DDF810A001E0DDF80CA0A88911
:101B200000F4004040B10AEBCA0000EB0A10316833
:101B30004900B0FBF1F807E00AEBCA0000EB0A101D
:101B400031688900B0FBF1F86420B8FBF0F00401C3
:101B50002009642101FB1089A88900F4004040B1EC
:101B6000322000EBC900B0FBF1F000F007000443A5
:101B700008E0322000EB09106421B0FBF1F000F026
:101B80000F0004432C8106B0BDE8F0874FF41651D6
:101B9000016000218180C18001810C2141810021EF
:101BA0008181704710B502460020108A4FF2FF0372
:101BB00018400B884C8823438C882343CC882343CC
:101BC0001843108210BD0021018041808180C180B6
:101BD000704721B1828942F40052828104E08289F7
:101BE0004DF6FF731A4082817047F0B5034600241A
:101BF00000260025002040F66A17B94200D100BF38
:101C00001846C1F3421401F01F06012707FA06F532
:101C1000012C01D10C3004E0022C01D1103000E085
:101C200014301AB107682F43076002E00768AF431A
:101C30000760F0BD1AB1838A0B43838202E0838A76
:101C40008B4383827047028A4FF6F0731A400282F8
:101C5000028A0A430282704782894FF2FF731A4058
:101C6000828182890A438281704721B1828942F050
:101C70000202828104E082894FF6FD731A4082815C
:101C80007047028A4FF6DF731A400282028A0A43C3
:101C90000282704721B1028A42F48042028204E04B
:101CA000028A4BF6FF731A4002827047C1F30802A2
:101CB0008280704701468888C0F308007047818998
:101CC00041F0010181817047028BD2B20283028B05
:101CD00042EA012202837047028B02F47F420283B0
:101CE000028B0A430283704721B1828A42F02002AC
:101CF000828204E0828A4FF6DF731A408282704744
:101D000021B1828A42F01002828204E0828A4FF678
:101D1000EF731A408282704721B1828A42F0080232
:101D2000828204E0828A4FF6F7731A4082827047FB
:101D300021B1828942F40042828103E08289C2F3A8
:101D40000E028281704721B1828A42F4006282824F
:101D500004E0828A4FF2FF731A4082827047828ABF
:101D60004FF6FB731A408282828A0A43828270474E
:101D700021B1828A42F00202828204E0828A4FF616
:101D8000FD731A408282704702460020B1F5007F41
:101D900000D100BF13880B400BB1012000E00020F0
:101DA000704701F40072B2F5007F00D100BFCA4352
:101DB0000280704770B502460024002300250020F1
:101DC00040F66A16B14200D100BFC1F3421501F0DE
:101DD0001F03012606FA03F3012D02D19689334031
:101DE00006E0022D02D1168A334001E0968A334084
:101DF0000C12012606FA04F41688344013B10CB113
:101E0000012000E0002070BD10B50022002340F644
:101E10006A14A14200D100BF0A1201249440A3B267
:101E2000DC43048010BD0000003801400044004045
:101E300000480040004C0040005000403149014340
:101E4000314A1160704770B5002100230F22C47819
:101E500004B32D4C246804F4E064C4F5E064210A62
:101E6000C1F10403CA40447804FA03F184781440B1
:101E700021430901254C0678A155047804F01F057B
:101E80000124AC4005786D11AD0005F1E025C5F8E1
:101E9000004109E0047804F01F050124AC401C4D0A
:101EA0000678761145F8264070BD1A4A0A4002436A
:101EB000154B1B1F1A60704739B1134A121D126867
:101EC0000243114B1B1D1A6006E00F4A121D1268D7
:101ED00082430D4B1B1D1A607047042808D14FF038
:101EE000E021096941F004014FF0E022116107E0AF
:101EF0004FF0E021096921F004014FF0E022116167
:101F0000704700000000FA050CED00E000E400E07E
:101F100080E100E080FFFF1F704700000FB404491C
:101F200010B503AA029800F0DDF810BC5DF814FBB0
:101F3000440000202DE9F0410E46044600202062B6
:101F40002046E168884730B3252805D0D4E901212F
:101F50009047206A401CF2E7E16820460027884746
:101F6000050018D0A5F14100192802D820354FF4FA
:101F700000673246294620462760FEF7F1F840B157
:101F8000012804D0F61D26F007060836D8E7361DCE
:101F9000D6E72846DAE7206ABDE8F0812DE9F0416E
:101FA0000646002410687529314616A510D0AFF3F7
:101FB0000080002802DA404213A507E031688A0752
:101FC00001D512A502E0490704D511A5012401E0BD
:101FD000AFF3008000210A2206F1240709E0B0FBDC
:101FE000F2FCB0FBF2F302FB1C00303078541846D0
:101FF000491C0028F3D123462A463046BDE8F0416B
:1020000000F017B8000000002D0000002B000000B9
:1020100020000000704770477047704710B500F00F
:1020200073F8006810BD10B5044600F06DF8046048
:1020300010BD2DE9F0470D4699469246044600F141
:1020400024080168880604D5E06921F010012160A8
:1020500000E00120A84201DD471B00E00027A16944
:102060007A1902EB0900081AA0612078C00602D490
:102070002046AFF30080002608E0D4E901211AF8D9
:1020800006009047206A401C761C20624E45F4DB17
:102090002078C0060AD52046AFF3008006E0D4E9D8
:1020A000012130209047206A401C2062381EA7F191
:1020B0000107F4DC07E0D4E9012118F80500904796
:1020C000206A401C2062281EA5F10105F3DC204691
:1020D000AFF300802078000602D50220BDE8F0872B
:1020E0000120FBE7074B70B50D467B4400F015F867
:1020F0000446284600F024F810B14FF0FF3070BDC0
:10210000204670BDC5F0FFFF004870472801002041
:1021100001694A1C02610878704700B58FB0CDE9AB
:1021200001310021059105497944CDE9031011469B
:102130006846FFF7FFFE0FB000BD0000E5FFFFFFA0
:10214000007B00F0800070470048704728010020A5
:102150007546FFF7F9FFAE4605006946534620F085
:102160000700854618B020B5FFF7D2F8BDE820403B
:102170004FF000064FF000074FF000084FF0000B43
:1021800021F00701AC46ACE8C009ACE8C009ACE8F6
:10219000C009ACE8C0098D4670470446AFF3008023
:1021A0002046FDF7EFFF2DE9F04106460F4600F00F
:1021B000CFFB04000D4618BF0120284320F000404B
:1021C000C0F17F6000F1E040C00F0ED0301C18BF9E
:1021D0000120384320F00040C0F17F6000F1E04072
:1021E000C00F04BF0120FFF71EFF20462946BDE8AF
:1021F000F081000021F00042A2F16052B2F5801F90
:1022000001F0004328BFD2F17F6C0BD95FEA001CBC
:1022100043EAC20242EB507018BF704728BF20F05B
:1022200001007047B2F5801FBCBF184670474FEAE7
:10223000410C1CF5001F02D2084600F0FCBF70B52F
:1022400000F0FCFA00000089FFF7F6BF4FF00040F5
:10225000A0F580007047000010B591EA030F48BF59
:1022600083F0004300F16284841A71EB030C05D201
:10227000121943EB0C03001B61EB0C01DFF824E1A6
:102280004FEA1154A4EB135C1EEA430F18BF9EEAF9
:10229000445F73D023EA0E03DCF1200E21EA0451DF
:1022A00043F4801332D322FA0CFE10EB0E0023FA13
:1022B0000CFE41EB0E01CCF1200E03FA0EFE10EBEA
:1022C0000E0051F10001B1F5801FCCF1200E32D289
:1022D00001EB045112FA0EF2BDE8104058BF7047EE
:1022E000401C38BF5FEA420218BF7047002814BF85
:1022F00020F0010041F100014FEA410313F5001FF6
:1023000038BF7047A1F1C04100F0E6BA012A43EBA3
:102310000302ACF1200CDCF11F0E32BF4FF0000EB7
:1023200023FA0CF310EB030041EB0451B4EB115F03
:10233000D0D0A1EB045101F5801149085FEA3000CB
:1023400001EB04510ED350F1000038BF12FA0EFE1B
:1023500008D1BDE81040C9E7401C38BF5FEA42021F
:10236000CAD1C3E7BDE810404FEA410313F5001F8F
:1023700038BF7047A1F1C04100F0AEBA9EEA445F99
:1023800008D011EA5E0FBDE8104004BF01F0004123
:1023900000207047BDE8104070B500F04FFA00BF54
:1023A00064FBBE3E0000E0FF491058BFC1F1404150
:1023B0005B1058BFC3F140438B42EFF3008070477E
:1023C0002DE9C04130B4DFF8A0C23CEA111418BFB7
:1023D0003CEA131400F0EC8081EA03051CEA1114B6
:1023E00044EAD57418BF1CEA131500F0C780A4EBAB
:1023F00005044FF0004545EAC12145EAC32341EAFF
:10240000505143EA525304F17F74994204F5003469
:102410004FEAC0204FEAC22208BF904200F09C80E1
:102420004FEA13650FF24016765D4FEA134506FB3F
:1024300005F7C7F1807706FB07F74FEAD737A7FB09
:1024400003687642C8F58038A7FB06CE38BFA8F1EE
:10245000010807FB08E64FF0000EA6FB028CE6FB26
:1024600003CEDCF1000CCEF1004E38BFAEF1010E10
:10247000A6FB0C584FF000074FF00005E6FB0E8757
:10248000A1FB08C6A0FB07CE16EB0E0645F1000522
:10249000E1FB076515F1E04E7EBFA4F580345FEAED
:1024A00046066D4116F1800745F100054FEA1727F2
:1024B0004FEA066647EA0567A6F1DE46B6F1805F99
:1024C0004FEA15251FD9384624F0010C05EBC471DD
:1024D000BCF1FE6F01EB0C1102D8F0BCBDE800812D
:1024E00024425CBF01F5801E9EEAC47F02D4F0BC8A
:1024F000BDE80081244238D4F0BCA1F1C041BDE860
:10250000004100F0E9B94FEAD22242EA43524FEAD1
:10251000D323A7FB02864FEAD02040EA415007FBB5
:1025200003661EEA0E0F4FEAD12105FB026658BF73
:10253000A6EB0056B6EB00564FEA520E4EEAC37EAB
:1025400018EB0E0E56EB530EBDD518EB02085E418C
:102550007F1C55F10005B6E74FF480154FF00007DA
:102560004FF000064FF00008ADE7F0BC4FF0000060
:1025700001F1C04101F00041BDE8008111EA0C1FEA
:102580000CEA131500D00CE013EA0C1F00F02580B4
:102590004FF00000F0BC81EA030101F00041BDE80A
:1025A0000081F0BCBDE8004181EA030100F094B96C
:1025B000F0BCBDE8004170B500F040F9097EFC3E7A
:1025C00000F007B881EA03014FF0000001F000417C
:1025D000704781EA030100F07FB9F0BCBDE800411B
:1025E0004FF0000021497047FFFDFBF9F7F5F4F2C9
:1025F000F0EEEDEBE9E8E6E4E3E1E0DEDDDBDAD89E
:10260000D7D5D4D3D1D0CFCDCCCBCAC8C7C6C5C4FB
:10261000C2C1C0BFBEBDBCBBBAB9B8B7B6B5B4B312
:10262000B2B1B0AFAEADACABAAA9A8A8A7A6A5A4FD
:10263000A3A3A2A1A09F9F9E9D9C9C9B9A999998C1
:102640009797969595949393929191908F8F8E8E64
:102650008D8C8C8B8B8A89898888878786858584F1
:1026600084838382828181800000FF070000F87FDD
:1026700051EA030C17D41CF5801F58BFBCF5801F0E
:1026800000F10680994218BF704708BF904270471A
:1026900007D711F5801F58BF13F5801F19D4994231
:1026A0007047894270471CF5801F08D5BCF5801F14
:1026B000F7D58B4218BF704708BF824270474FF46E
:1026C000001C1CEB410F38BF1CEB430F01D28B42A7
:1026D000704770B500F0B2F8922449004FF00051F5
:1026E0004FF08053FFF760BEDFF848C170B51CEAB9
:1026F000111E1EBF1CEA13159EEA0C0F95EA0C0F63
:1027000000F06F8081EA030423EA4C134EEAD47E82
:1027100021EA4C1141F4801143F48013AE44A1FB33
:10272000024CA0FB0365AEF17F7E361955EB0C051C
:10273000A1FB034C4CF10003A0FB021C16EB0C06A2
:10274000654153F10003094218BF46F0010613F436
:10275000007F0BD14FEA03314FEA0530340341EAE1
:10276000155140EA16506FF003020AE04FEAC32108
:102770004FEAC520F40241EA555140EA56506FF045
:10278000020202EB2E4201EB025585EACE710AD01D
:102790005FEA440C18BF24F0004450F1000041F1FE
:1027A000000120EAD47040F2FE7C624500D270BD88
:1027B000A84214BF4FF080444FF04044002E08BFA1
:1027C0000024BEF1806FA8BFA1F1C041BDE87040F8
:1027D00080F282804FF0000001F1C04101F0004121
:1027E00070479EEA0C0F0CEA131518BF95EA0C0F00
:1027F00006D04FF0000081EA030E0EF0004170BDDC
:1028000000F01CF88900013E00F007B800F009B89C
:102810004FEA430C5FEA5C5C08D081EA030100F0F8
:102820005BB84FEA410C5FEA5C5CF6D14FF0000008
:10283000014970470000FF070000F87F0EF1020E0B
:102840002EF0030E5EF8046B364205D4012A43EBEA
:10285000030515F5001F12D8012841EB010C1CF5EA
:10286000001F0CD80ED14FEAD17C15F5001F0CEBE0
:102870004C0C0CF1020C08BF4CEBD37C04E04FF085
:10288000080C01E04FEAD37C0CEB4C0526FA05F668
:1028900006F00706B6F1040C06D20EEB860CBDE876
:1028A00070404CF0010C6047DFE80CF0090B0202AD
:1028B0004FF000414FF00000A1F5002170BD194616
:1028C0001046012851EB010418BFD4F5001484BF51
:1028D000002001F0004170BD0808A0F500114FEA8A
:1028E0003101704753EA010C17D41CF5801F58BF03
:1028F000BCF5801F00F106808B4218BF704708BFEF
:102900008242704707D713F5801F58BF11F5801F0B
:1029100019D48B4270479B4270471CF5801F08D525
:10292000BCF5801FF7D5994218BF704708BF904289
:1029300070474FF4001C1CEB430F38BF1CEB410FDA
:1029400001D2994270470FB40CBC03BCFFF7C1BE63
:102950002DE9F04101F5801CBCF5001FC0F2C380D9
:102960004FEA115C21EA0C510CF1FD0C41F480118D
:102970005FEA5C0C0CF5C07C01D3400049413DA4EA
:10298000890241EA905187028E0E0A0CA45D04FB75
:1029900004F602FB06F6C6F14046A4FB0662F60DFD
:1029A00046EA422606FB06F4A4FB01235242C3F189
:1029B000404338BF5B1EA6FB02420024E6FB032413
:1029C000D20B42EA4446A6FB0623A1FB02E2A3FB8C
:1029D00007E4A4184FF0000252F10002E3FB0142A9
:1029E0006442C2F1404E38BFAEF1010EA6FB042393
:1029F0004FF00002E6FB0E32A2FB03464FF000044C
:102A0000B61954F10004E2FB0264A1FB06E6A4FB44
:102A100007E816EB08064FF0000858F10008E4FB41
:102A200001687642C8F1405838BFA8F10108A2FBFE
:102A300006E4A3FB08E52D194FF0000454F100044F
:102A4000E2FB0854A1FB05E6A7FB04E818EB060827
:102A50004FF0000656F10006E1FB048618F1200550
:102A600056F10006A809A8F11B08B10908F03F08B3
:102A7000B8F10A0F40EA86601CD901EB0C51BDE8A1
:102A8000F08100BFFCF5EEE8E2DDD8D3CFCBC7C3C1
:102A9000C0BDB9B6B4B1AEACA9A7A5A3A19F9D9B7B
:102AA0009A9896959392908F8D8C8B89888786853E
:102AB00084838281A0FB006800FB01F208EB4208DE
:102AC000B8EB872807D5341858EB0104D5D5401C3E
:102AD00051F10001D1E7341A78EB0104CDD4401E46
:102AE00071F10001C9E75FEA4C0C5FEA9C5C0DD113
:102AF00005D34FF0000001F00041BDE8F081BDE8D2
:102B0000F04170B5FFF79AFE6DDBFFBEBDE8F04106
:102B10004FF00000004970470000F87F10B591EABF
:102B2000030F48BF83F000433FF59EAB841A71EB5F
:102B3000030C07D212198CF0004C43EB0C03001B62
:102B400061EB0C01DFF8A4E14FEA1154A4EB135C34
:102B50001EEA430F18BF9EEA445F00F0B08023EAEC
:102B60006E03524221EA0451C3EB6E0338BF5B1E71
:102B7000DCF1200E25D322FA0CFE10EB0E0043FAF6
:102B80000CFE41EB0E01CCF1200E03FA0EFE10EB11
:102B90000E0051F10001CCF1200E29D412FA0EF2F0
:102BA00001EB0451BDE8104058BF7047401C1CBFEA
:102BB000B2F1004F704700280CBF491C20F0010003
:102BC000704712EB020E43EB030218BF4FF0010EE9
:102BD0004EEA4202ACF1200CDCF11E0E54D943FA4D
:102BE0000CFE10EB0E0051F1FF31CCF11E0ED5D5CD
:102BF0000EF1010E12FA0EFE404141EB010101EB14
:102C0000445C5FEA5C5C10D910EBDE7001EB0451B0
:102C100038BFBEF1004FBDE8104018BF7047002814
:102C20000CBF491C20F00100704730D24FEAD42C71
:102C300011F5001124F400641BD0B1FA81F20B3AB3
:102C4000A41AA41ED2F12003914030FA03F31943D1
:102C5000904001EBCC71002C01EB0451BDE8104019
:102C6000A8BF704701F1C0414FF0000001F00041E2
:102C70007047B0FA80F310FA03F100D110BDE41AE6
:102C8000173C4805C90AE4E701EB045110BD49109F
:102C900001EB0451BDE810404FEA300002E04FF074
:102CA000000170474A0008BF0042F8D0B2F5001F8B
:102CB00028BF704701F000414FF0000070479EEAC6
:102CC000445F07D011EA5E0FBDE8104004BF002149
:102CD00000207047BDE8104070B5FFF7AFFD00BFA2
:102CE00040DFF63E83F00041104670470000E0FFF1
:102CF00043004FEAD30C4FEA3C0C43401FBF400750
:102D00000CF1605113F0FE4F70471CF0006F03D1BF
:102D100000200CF0004170470CF0004343EA507073
:102D200010B540EACC0000F040FA00BF000000926D
:102D30004FEA0001FFF7D0BD4FF000414FF0000017
:102D4000A1F500217047000090EA010F48BF81F013
:102D5000004100F1B882421A3CBF801A89184FEA3C
:102D6000D0524FF07F4C1CEA410FA2EBD15318BF59
:102D70009CEA026F00F03B804FF0004C4CEA0020D0
:102D80004CEA012121FA03FC10EB0C0C1ED202F1DB
:102D9000FF325FEA1C2040EBC25038BF70471CF086
:102DA0007F0F4FEA400C18BFBCF17F4F38BF704710
:102DB000C3F12003994008BF20F00100BCF17F4F10
:102DC00038BF7047A0F1C04000F035BA4FEA3C0070
:102DD000000A40EBC25028BF1CF0FF0F4FEA400C26
:102DE000E6D018BFBCF17F4F38BF7047EAE79CEAD6
:102DF000026F05D010EA5C0F08BF00F0004070477A
:102E000010B500F0D2F900BF64FBBE3E401058BFC1
:102E1000C0F14040491058BFC1F140418142EFF339
:102E2000008070474FF47F0C1CEAD0121EBF1CEAD2
:102E3000D11392EA0C0F93EA0C0F00F0858090EA10
:102E4000010F48BF42F4807240F4000C41F40000CE
:102E50002CF07F4120F07F4000B58142A2EB0302BD
:102E60000FF2081CACEB504EC0F100009EF800E0E1
:102E70004FEA4E0E00FB0EFC38BF49004FEA2C1CF7
:102E800002F5FA020CFB0EF34FEACE1E4FEA112CAC
:102E90004FEAC1210EEB635E42EB22420EFB0CFCBB
:102EA0004FEA1C5300FB03114FEA112C4FEA01318A
:102EB0000EFB0CFC4FEADC4C00FB0C11C14228BF9E
:102EC00009184CEB03335DF804EB10EB410143EBC5
:102ED000C250B2F57C0F38BF704729D512F0F00F01
:102EE0001CBF00F1C04000F00040704700818283A9
:102EF0008485868788898B8C8D8E8F919293959609
:102F000097999A9C9D9FA0A2A3A5A7A8AAACAEB092
:102F1000B2B3B5B7B9BCBEC0C2C5C7C9CCCED1D497
:102F2000D7D9DCDFE2E6E9ECF0F3F7FAFE000000C7
:102F30004FEA400C0CF1807CBCF17E4F28BF7047FB
:102F4000B0F1C04000F077B990EA010F0CEAD1135C
:102F500048BF42F48072624538BF634507D213F41C
:102F60007F0F16D080EA010000F00040704710B5D6
:102F700000F01BF9097EFC3E00F005B880EA010074
:102F800000F00040704780EA010000F0004000F0CF
:102F900052B912F47F0F04BF0248704780EA010063
:102FA00000F049B90000C07FC10DD1F19E0206DBDF
:102FB0004FEA002343F0004323FA02F07047004237
:102FC00007D54FEA4001B1F1FE4F02D24FF00000A9
:102FD000704710B500F0E9F849922480002070474E
:102FE0006FEA20007047000010F0004148BF4042E7
:102FF000B0FA80F310FA03F2C3F19D030BD051EA4B
:10300000C35101EB1220530638BF704700F1010095
:1030100008BF20F001007047B0FA80F310FA03F205
:10302000C3F19D030AD0D90501EB1220530638BF26
:10303000704700F1010008BF20F001007047000058
:1030400050EA010C00F113801CF5000F58BFBCF5CD
:10305000000F01D48842704707D710F5000F58BF02
:1030600011F5000F15D488427047894270471CF54E
:10307000000F04D5BCF5000FF7D5814270474FF023
:10308000807C1CEB400F38BF1CEB410F01D281420A
:10309000704710B500F089F8922449004FF00050B5
:1030A0004FF08051FFF7B2BE4FF47F0C1CEAD012F4
:1030B0001EBF1CEAD11392EA0C0F93EA0C0F00F02A
:1030C000478090EA010F48BF42F480724FF0004CF5
:1030D0004CEA00204CEA012102EB0302A0FB0113A1
:1030E000A2F50002002918BF43F001035B0028BFCE
:1030F0004FEA330342EB22425FEA132C4CEBC250FF
:103100002EBFBCEB436FB2F57C0F70474FEA036CE8
:10311000BCF1004F08BF20F00100B2F57C0F38BFB2
:1031200070470BD582F0FF0212F5803FC8BF704791
:1031300000F1C040D8BF00F00040704700F5000C1F
:103140005FEA4C0C48BF7047B0F1C04000F073B864
:1031500090EA010F0CEAD11348BF42F48072624535
:1031600038BF634504D280EA010000F00040704798
:1031700010B500F01AF800BF8900013E00F007B852
:1031800000F009B85FEA410C5FEA1C6C08D080EAE5
:10319000010000F050B85FEA400C5FEA1C6CF6D109
:1031A0004FF00040A0F5800070470EF1020E2EF0A7
:1031B000030E5EF8044B244204D44FEA4102B2F1FC
:1031C0007F4F11D84FEA4003B3F17F4F0CD80ED197
:1031D0004FEAD07CB2F17F4F0CEB4C0C0CF1020C9F
:1031E00008BF4CEBD17C04E04FF0080C01E04FEA43
:1031F000D17C0CEB4C0324FA03F404F00704B4F183
:10320000040C06D20EEB840CBDE810404CF0010C0F
:103210006047DFE80CF0070802024FF00040A0F51D
:10322000800010BD0846420018BFD2F1807288BFEE
:1032300000F0004010BDFF2141EAD050C0057047AA
:1032400051EA000C00F113801CF5000F58BFBCF5CB
:10325000000F01D48142704707D711F5000F58BF06
:1032600010F5000F15D481427047894270471CF554
:10327000000F04D5BCF5000FF7D5884270474FF01A
:10328000807C1CEB410F38BF1CEB400F01D2884201
:10329000704780EA010081EA000180EA0100FFF73F
:1032A000F8BE80F0004090EA010F7FF554AD81F048
:1032B000004100F008B8000090EA010F48BF81F01B
:1032C00000413FF548AD421A04D882F00042A0EB1D
:1032D000020011444FEAD0524FF07F4C1CEA410FDC
:1032E000A2EBD15318BF9CEA026F4AD04FF0004CBA
:1032F0004CEA00204CEA012121FA03FCB0EB0C0C53
:103300000FD412F0FE0F36D05FEA4C001DD500122C
:1033100040EBC25038BF70471CF03F0F18BF7047DA
:103320000BE0A2F101025FEA1C2040EBC25038BF63
:1033300070471CF07F0F18BF7047C3F120039940FE
:1033400014BF401E20F00100704780084FEA12238E
:1033500008BF7047B0FA80FCA2EB0C02CCF1280C3D
:1033600060FA0CF093EA122F04BF00EBC2507047D2
:103370004FEAC3707047130A5FEADC1008BF70475A
:10338000F6E79CEA026F04D010EA5C0F08BF002049
:10339000704710B5FFF709FF40DFF63E81F00040AF
:1033A00070470000C43300080000002060000000E7
:1033B000280100082434000860000020280B0000C9
:1033C00044010008000000000000000000000000B0
:1033D00000000000000000000000000000000000ED
:1033E00000000000000000000000000000A24A04ED
:1033F00000000000000000000102030406070809A5
:1034000019000000000000000000000000000000A3
:103410000000010203040102030406070809020474
:04342000060800009A
:04000005080000ED02
:00000001FF
